:100000000C94AD000C94D5000C94D5000C94D50044
:100010000C94D5000C94D5000C94D5000C94D5000C
:100020000C94D5000C94D5000C94D5000C94D500FC
:100030000C94D5000C9481110C94D5000C94D5002F
:100040000C94BF180C94D5000C944F110C942911EA
:100050000C94D5000C94D5000C94D5000C94D500CC
:100060000C9419130C94D5009E16B516A716B3164A
:10007000A216A516AB16A216B316A716000000000E
:10008000240027002A00494D55204E4F5420464F4A
:10009000554E442100494D55203078323900494DA4
:1000A0005520307832380043616C69622064617495
:1000B0006120666F756E64004E6F2063616C6962CB
:1000C000206461746100494D552043616C6962721E
:1000D000617465640043616C6962726174696F6E1A
:1000E0002073746F72656400526563616C6962723B
:1000F0006174650041726475696E6F205265737436
:10010000617274696E6700426164206461746100A9
:1001100000000000250028002B000404040404044F
:1001200004040202020202020303030303030102A6
:100130000408102040800102040810200102040875
:100140001020000000080002010000030407000066
:10015000000000000000FB1FF51F11241FBECFEFA1
:10016000D8E0DEBFCDBF27E0AAE5B4E001C01D9214
:10017000A839B207E1F714E0A0E0B1E0E6E5F2E566
:1001800002C005900D92AA35B107D9F710E0CCEA6C
:10019000D0E004C02197FE010E943D24CB3AD10754
:1001A000C9F70E9409190C941E290C94000080E0E4
:1001B00090E0089583E692E0089584E892E008953F
:1001C000FC01DB018C91828311968C9111978383C2
:1001D00012968C911297848313968C911397858332
:1001E00014968C91868385E090E00895DC01FB01F4
:1001F00012968C911297808313968C91139781831A
:1002000014968C911497828315968C9115978383FD
:1002100016968C91848385E090E0089589E992E0B8
:1002200008958AEB92E008958FEC92E0089580EFB4
:1002300092E0089580E093E0089584E191E00895CC
:1002400081E293E0089582E493E0089583E693E0E9
:10025000089586E793E0089587E993E0089580EB99
:1002600093E0089581ED93E00895FC01DB014C914A
:1002700050E060E070E0428353836483758311969D
:100280008C911197582B4283538364837583129604
:100290008C911297682B42835383648375831396E2
:1002A0008C911397782B42835383648375831496C0
:1002B0004C91149750E060E070E04683578360876C
:1002C000718715968C911597582B468357836087B5
:1002D000718716968C911697682B46835783608793
:1002E000718717968C91782B468357836087718727
:1002F00088E090E00895DC01FB0112968C91129742
:10030000808313968C911397818314968C91149704
:10031000828315968C911597838316968C911697E8
:10032000848317968C911797858318968C911897CC
:10033000868319968C91878388E090E008950895CC
:100340000C944A0E4F925F926F927F928F929F927F
:10035000AF92BF92EF92FF920F931F93CF93DF93D1
:1003600000D000D0CDB7DEB77C018B01FB018081CE
:1003700090E0A0E0B0E0F70182839383A483B5838B
:10038000FB012181922BF70182839383A483B583A0
:10039000FB012281A22BF70182839383A483B5837F
:1003A000FB012381B22BF70182839383A483B5835E
:1003B000FB01848190E0A0E0B0E0F70186839783A1
:1003C000A087B187FB012581922BF7018683978354
:1003D000A087B187FB012681A22BF7018683978333
:1003E000A087B187FB012781B22BF7018683978312
:1003F000A087B187FB01808590E0A0E0B0E0F70125
:1004000082879387A487B587FB012185922BF7010B
:1004100082879387A487B587FB012285A22BF701EA
:1004200082879387A487B587FB012385B22BF701C9
:1004300082879387A487B587645F7F4FCE0101963B
:100440000E943B0C89819A81AB81BC814C015D018A
:10045000F0E18F0E911CA11CB11CA801415F5F4F00
:10046000FA0120E130E02901612C712C4814590473
:100470006A047B0428F4618161932F5F3F4FF3CFBF
:10048000F801E80FF91F1786F7015787468740964E
:100490000F900F900F900F90DF91CF911F910F91C0
:1004A000FF90EF90BF90AF909F908F907F906F9054
:1004B0005F904F9008950F931F93CF93DF93EC01BC
:1004C0008B0102960E94A201F801E80FF91F218119
:1004D000428150E060E070E0BA0155274427522B7A
:1004E0002081422B2381722B4A8B5B8B6C8B7D8B03
:1004F0002581468150E060E070E0BA01552744272D
:10050000522B2481422B2781722B4E8B5F8B688F5D
:10051000798F2185428550E060E070E0BA0155276F
:100520004427522B2085422B2385722B4A8F5B8FC9
:100530006C8F7D8F2585468550E060E070E0BA01C4
:1005400055274427522B2485422B2785722B4E8F0B
:100550005F8F68A379A32189428950E060E070E051
:10056000BA0155274427522B2089422B2389722B0D
:100570004AA35BA36CA37DA32589468950E060E074
:1005800070E0BA0155274427522B2489422B278932
:10059000722B4EA35FA368A779A7218D428D50E0EF
:1005A00060E070E0BA0155274427522B208D422B82
:1005B000238D722B4AA75BA76CA77DA7258D468D3F
:1005C00050E060E070E0BA0155274427522B248D9B
:1005D000422B278D722B4EA75FA768AB79AB21A169
:1005E00042A150E060E070E0BA0155274427522B49
:1005F00020A1422B23A1722B4AAB5BAB6CAB7DAB32
:1006000025A146A150E060E070E0BA0155274427DB
:10061000522B24A1422B27A1722B4EAB5FAB68AFAC
:1006200079AF8896DF91CF911F910F9108954F92E6
:100630005F926F927F928F929F92AF92BF92EF9252
:10064000FF920F931F93CF93DF9300D000D0CDB7CD
:10065000DEB77C018B01CE0101960E943B0C8981A3
:100660009A81AB81BC814C015D0124E0820E911C1A
:10067000A11CB11CA8014D5F5F4FFA0124E030E0DE
:100680002901612C712C481459046A047B0428F454
:10069000618161932F5F3F4FF3CFF801E80FF91F9E
:1006A0001382F7015383428304960F900F900F90AB
:1006B0000F90DF91CF911F910F91FF90EF90BF901E
:1006C000AF909F908F907F906F905F904F90089524
:1006D0004F925F926F927F928F929F92AF92BF9252
:1006E000EF92FF920F931F93CF93DF9300D000D030
:1006F000CDB7DEB77C018B01FB018191BF01F70112
:100700008283CE0101960E943B0C89819A81AB8144
:10071000BC814C015D01F5E08F0E911CA11CB11C48
:10072000A8014C5F5F4FFA0125E030E02901612C00
:10073000712C481459046A047B0428F46181619384
:100740002F5F3F4FF3CFF801E80FF91F1482F70135
:100750005483438305960F900F900F900F90DF9175
:10076000CF911F910F91FF90EF90BF90AF909F900E
:100770008F907F906F905F904F9008954F925F920F
:100780006F927F928F929F92AF92BF92CF92DF92A1
:10079000EF92FF920F931F93CF93DF93CDB7DEB706
:1007A0002C970FB6F894DEBF0FBECDBF7C018B0136
:1007B000DB018C9190E0F7019383828311962C9159
:1007C000922B938382836E5F7F4FCE0101960E94AE
:1007D0003B0C89809A80AB80BC8024013501F6E017
:1007E0004F0E511C611C711C98012B5F3F4FF9018A
:1007F00086E090E0AC0160E070E0441555056605C8
:10080000770520F4418141930196F4CFF801E80D7A
:10081000F91D1582D70115963C932E931497B401B8
:100820006A5F7F4F600F711FCE0105960E943B0CDF
:10083000BAE08B0E911C4D805E806F807884A4019D
:10084000092C000C660B770B440D551D661D771D9A
:10085000D801A80DB91DCD01801B910B5C01C12CE5
:10086000D12CA416B506C606D70628F48D91FD0135
:1008700032978083F0CF5401A40CB51CB8016A0DE7
:100880007B1DFB0131971082C4010197800F911FDE
:10089000F70197838683CE0109960E943B0C950150
:1008A0002C5F3F4F89859A85AB85BC852901032E36
:1008B000000C66087708480E591E6A1E7B1EF5015B
:1008C0003396E00FF11FA9014A01A12CB12C841429
:1008D0009504A604B70428F4618161934F5F5F4FCC
:1008E000F3CF820F931FF801E80FF91FDF01119773
:1008F0001C9221503109020F131FD70119961C9326
:100900000E9318972181428150E060E070E0BA01B7
:1009100055274427522B2081422B2381722BF7012C
:10092000428753876487758704962C960FB6F89490
:10093000DEBF0FBECDBFDF91CF911F910F91FF9012
:10094000EF90DF90CF90BF90AF909F908F907F906F
:100950006F905F904F900895EF92FF920F931F93C7
:10096000CF93DF938C01EB01FC018281888383812B
:10097000898384818A8385818B8386818C83878127
:100980008D8380858E8381858F838285888783850B
:10099000898784858A8785858B87A685B785FD01AC
:1009A00001900020E9F731977F01EA1AFB0AA701BD
:1009B00060E070E0CE010C960E94690CF80166853B
:1009C0007785A701CE0140960E944C26C70140962C
:1009D000DF91CF911F910F91FF90EF9008950F93AA
:1009E0001F93CF93DF93EC018B0102960E94AC041E
:1009F0005A894B893C892D89F801E80FF91F5083EA
:100A00004183328323835E894F89388D298D5483B6
:100A10004583368327835A8D4B8D3C8D2D8D508792
:100A20004187328723875E8D4F8D38A129A1548756
:100A30004587368727875AA14BA13CA12DA1508B12
:100A4000418B328B238B5EA14FA138A529A5548BF6
:100A5000458B368B278B5AA54BA53CA52DA5508FD2
:100A6000418F328F238F5EA54FA538A929A9548FB6
:100A7000458F368F278F5AA94BA93CA92DA950A382
:100A800041A332A323A35EA94FA938AD29AD54A336
:100A900045A336A327A38896DF91CF911F910F918D
:100AA00008954F925F926F927F92AF92BF92CF92D2
:100AB000DF92EF92FF920F931F93CF93DF93EC019E
:100AC0008B018A81FB0180838B8181838C8182836E
:100AD0008D818383DB0140E050E0BA01E4E0F0E087
:100AE0001496CA80DB80EC80FD80CF0104964C1503
:100AF0005D056E057F05C8F42A853B85E20FF31F6F
:100B00003497D080F18032812381DC921196FC925F
:100B1000119712963C93129713962C931397FC01FE
:100B20004F5F5F4F6F4F7F4FDBCF5F01A00EB11E56
:100B30002C85F50120832D8521832E8522832F8509
:100B40002383D50140E050E0BA01CC84DD84EE84FB
:100B5000FF849C012C5F3F4F4C155D056E057F05A2
:100B6000F8F4CD018A199B09EC88FD888E0D9F1D34
:100B7000FC01D080E180F28083811496DC9214978E
:100B80001596EC9215971696FC92169717968C93DD
:100B90001797C9014F5F5F4F6F4F7F4F1496D5CFA7
:100BA000F801E80FF91F8E8980838F898183888DF2
:100BB0008283898D83837901A12CB12C412C512C06
:100BC00032018E899F89A88DB98D481659066A060B
:100BD0007B0680F5EC8DFD8DEA0DFB1DA081B181BA
:100BE000FD0101900020E9F731976F01CA1ADB0A75
:100BF000A60160E070E0C8018E0D9F1D0E94690C87
:100C0000F4E0EF0EF11CEC8DFD8DEA0DFB1D608113
:100C10007181A601C8018E0D9F1D0E944C26EC0C0F
:100C2000FD1C8FEF481A580A680A780AE2E0AE0EF7
:100C3000B11CC7CFC701DF91CF911F910F91FF90DA
:100C4000EF90DF90CF90BF90AF907F906F905F90CC
:100C50004F900895EF92FF920F931F93CF93DF93DE
:100C60007C018B01DC011296ED91FC911397EF0151
:100C700009900020E9F72197CE1BDF0BAE0160E061
:100C800070E0C8010E94690CF70162817381AE01B6
:100C9000C80104960E944C26CE010496DF91CF91A4
:100CA0001F910F91FF90EF900895EF92FF920F9395
:100CB0001F93CF93DF938C017B01DC0112962C9163
:100CC0001297FB012193CF011396ED91FC9114979C
:100CD000EF0109900020E9F72197CE1BDF0BAE0151
:100CE00060E070E00E94690CD80113966D917C91D0
:100CF0001497AE01C70105960E944C26CE010596B9
:100D0000DF91CF911F910F91FF90EF900895CF92B7
:100D1000DF92EF92FF920F931F93CF93DF937C01AB
:100D20008B01DC0112968C911297FB018083139644
:100D30008C91139781831496ED91FC911597EF0197
:100D400009900020E9F72197CE1BDF0BAE0160E090
:100D500070E0C80102960E94690CD70114966D914B
:100D60007C911597AE01C80106960E944C26CE01D3
:100D70000696F701A681B781FD0101900020E9F7F1
:100D800031976F01CA1ADB0AA60160E070E0800F9C
:100D9000911F0E94690C2A96D70116966D917C913D
:100DA0001797A601C8018C0F9D1F0E944C26CC0DE1
:100DB000DD1DD7011896ED91FC911997DF010D907B
:100DC0000020E9F711976D01CE1ADF0AA60160E055
:100DD00070E0C8018C0F9D1F0E94690C2496F701DA
:100DE00060857185A601C8018C0F9D1F0E944C264D
:100DF000C6018C0F9D1FD7011A966C911A971B96EE
:100E00004C911B971C963C911C971D962C91F801B8
:100E1000E80FF91F60834183328323830496DF91B7
:100E2000CF911F910F91FF90EF90DF90CF90089599
:100E30002F923F924F925F926F927F928F929F92EA
:100E4000AF92BF92CF92DF92EF92FF920F931F93D8
:100E5000CF93DF93CDB7DEB760970FB6F894DEBFC0
:100E60000FBECDBF8C016B01DB018D909D90AD90CD
:100E7000BC90FC0182819381A481B581881599057C
:100E8000AA05BB0570F4B401660F771F660F771FC4
:100E9000828593850E948125D8011B969C938E9311
:100EA0001A97F80182829382A482B5829601812CDE
:100EB000912C540144E050E0B8016A5F7F4F2C5FF1
:100EC0003F4FF80182819381A481B581FA01349664
:100ED0001F0188169906AA06BB0650F5D90111967E
:100EE000FC90119712968C9190E0A0E0B0E0DC01AC
:100EF000992788279F29F901F0808F29F380BF293E
:100F0000F80186839783A087B187DA01A10114973E
:100F100082859385A80FB91F84E0FB0101900D9293
:100F20008A95E1F7FFEF8F1A9F0AAF0ABF0AC7CF72
:100F30004601840E951ED4018C9111969C911197B7
:100F400012964C901297512C612C712C3201552421
:100F50004424592A482A13968C91782A5F01F80173
:100F600084859585A685B78584159505A605B7055D
:100F700070F4B201660F771F660F771F8489958919
:100F80000E948125D80155969C938E935497F80121
:100F90004486558666867786C401412C512C3201E1
:100FA0009801205F3F4FD8011C964D915D916D9146
:100FB0007C911F97F5013496441655066606770610
:100FC00098F5DC011596FC90159716964C9116979E
:100FD00050E060E070E0BA01552744275F2914967D
:100FE000FC9014974F291796FC907F29D8015096B2
:100FF0004D935D936D937C9353975F01AC014819BA
:10100000590954960D90BC91A02DA40FB51F44E032
:10101000F90101900D924A95E1F7BFEF4B1A5B0A77
:101020006B0A7B0A0496BFCFD601AA0DBB1D8C911B
:1010300011969C91119712968C901297912CA12C3D
:10104000B12C540199248824992A882A13968C91CA
:10105000B82A7F01F80186899789A08DB18D8815FE
:101060009905AA05BB0560F4B401660F771F848D4E
:10107000958D0E948125D8015D969C938E935C97F7
:10108000F801868A978AA08EB18E212C312C812C72
:10109000912C54019801265E3F4F3A872987F80129
:1010A00086899789A08DB18D88169906AA06BB06F8
:1010B00008F05FC0B6016E0D7F1DCE0101960E9443
:1010C0003B0C97012C5F3F4F388B2F8749815A810A
:1010D0006B817C81C901330FAA0BBB0B2C013D0135
:1010E000440E551E661E771E4B865C866D867E8678
:1010F00023E0E20EF11CF601EE0DFF1D2F8538896D
:10110000C901A0E0B0E04B845C846D847E848415CA
:101110009505A605B70528F4A181A1932F5F3F4F40
:10112000EFCF6F847888460D571DF601E40FF51F49
:1011300031971082C30101978C0D9D1DD8015B96DC
:101140009C938E935A977A015C96ED91FC915D97F2
:10115000E20DF31DA985BA858D919C9191838083C1
:10116000BFEF8B1A9B0AAB0ABB0AE2E02E0E311CC2
:1011700096CFC70160960FB6F894DEBF0FBECDBF05
:10118000DF91CF911F910F91FF90EF90DF90CF9063
:10119000BF90AF909F908F907F906F905F904F9097
:1011A0003F902F900895AB01FC01A681B781648127
:1011B0007581ED91FC9111970190F081E02DCD01A9
:1011C00009944F925F926F927F928F929F92AF920B
:1011D000BF92CF92DF92EF92FF920F931F93CF9324
:1011E000DF93CDB7DEB7A8970FB6F894DEBF0FBE7A
:1011F000CDBF8C010E94B3184B015C0198012B55A7
:101200003F4F3C8B2B8BF90180819181A281B3816F
:10121000A5019401281B390B4A0B5B0BDA01C901AC
:10122000893F9A42A105B10510F0359710827801E7
:1012300046E9E40EF11CD7018D919C91892B79F040
:10124000F801E755FF4F80819181A281B381881514
:101250009905AA05BB0518F4F701118210829801BF
:1012600022563F4F388B2F87A80146565F4F5A8B27
:10127000498BC80148969E8B8D8BD801A056BF4FD5
:10128000BA8FA98FF801E255FF4FF8A3EF8F215FC6
:101290003F4F3AA329A3680138E9C30ED11C4E5F22
:1012A0005F4F588F4F8B8F569F4F9CA38BA3A501E9
:1012B00094012C5E3F4F4F4F5F4F2DA33EA34FA392
:1012C00058A7F80184899589A689B789892B8A2B23
:1012D0008B2B81F4D80112968D919C911397DC0190
:1012E000ED91FC910284F385E02D09959C0197FF17
:1012F00014C07FC20E94B318DC01CB018819990980
:10130000AA09BB09F8014488558866887788481679
:1013100059066A067B06F0F692C2AF85B8898D91B0
:101320009C911197820F931F8D939C93F70140819D
:10133000518147305105D1F4AF89B88D8D919C9181
:101340001197AC014F5F5F4F4D935C93F801E80F2D
:10135000F91F208FF601808191810197918380830D
:10136000892B09F0AECF88E090E032C041155105DD
:1013700039F52F3F310589F481E090E0F701918341
:1013800080832DA13EA14FA158A5ABA1BCA12D9357
:101390003D934D935C93139794CF0E94B318DC0157
:1013A000CB0188199909AA09BB0989389341A1057C
:1013B000B10508F486CFF801E056FF4F10823FC216
:1013C00041305105A9F42E3F310531F482E090E01F
:1013D000D7018D939C9375CFF70111821082A98D4F
:1013E000BA8D8C9181116DCFC8010E94041769CF0D
:1013F0004230510589F4F60131832083AF89B88DDD
:101400001D921C9283E090E0F70191838083AF8569
:10141000B8892D933C9355CF4330510561F4322F59
:101420002227F60180819181280F391F3183208383
:1014300084E090E0CDCF4430510581F460E071E06C
:101440000E9407248F3F910531F485E090E0F70179
:101450009183808336CF1182108233CF453051057E
:1014600071F4E989FA893183208386E090E0D7011D
:101470008D939C93EF85F8893183208322CF46306A
:101480005105A1F4322F2227A989BA898D919C9107
:101490001197280F391F2D933C9387E090E0F701B7
:1014A00091838083D6018D919C915ACF483051050C
:1014B00009F007CFF7011182108260E071E00E940D
:1014C00007248F3F910509F0FCCEA989BA898D9137
:1014D0009C91009709F0BDC0C8010E94041784E3E5
:1014E00091E09A8389831C821B828FE394E09E8320
:1014F0008D8398878F839A8789871B861C861D8694
:101500001E867801B0E9EB0EF11C6801E4E9CE0E0D
:10151000D11C9AE5492E512C612C712CD701ED91EB
:10152000FC913097A9F1848195819C838B83808184
:1015300091819E838D8382819381DC01ED91FC9169
:101540000480F581E02D099598878F83D701ED916F
:10155000FC9182819381DC01ED91FC910680F78101
:10156000E02D09959A8789874B865C866D867E86F5
:10157000D701ED91FC9160857185D801ED91FC91C9
:101580000190F081E02DAE014F5F5F4FC8010995DA
:10159000B2E0EB0EF11CCE14DF0409F0BFCFF60170
:1015A000A081B181109709F440C012968D919C9151
:1015B00013979C838B8314968D919C9115979E8392
:1015C0008D83ED91FC9111970480F581E02DCD0183
:1015D000099598878F83D6018D919C91DC01ED91BF
:1015E000FC910680F781E02D09959A8789878EE125
:1015F00090E0A0E0B0E08B879C87AD87BE87D801E4
:10160000ED91FC91E080F180F60180819181DC0117
:10161000ED91FC910280F381E02D0995AE014F5FC1
:101620005F4FBC01C801F7010995F801E056FF4F73
:1016300081E08083319680829182A282B382AB89DD
:10164000BC898D929D92AD92BC9213978FEF9FEFC4
:10165000FBC08A30910509F0A2C08BE591E09A8326
:1016600089831B821C821D821E821F821886198616
:101670001A860E94B318F8014084518462847384EE
:101680009B01AC01241935094609570929013A0182
:101690006D897E89CE0101960E943501C301B20198
:1016A00028EE33E040E050E00E941B244B805C8039
:1016B0006D807E80420E531E641E751E4B825C82BE
:1016C0006D827E829B01AC0160E472E48FE090E069
:1016D0000E94F7234F80588469847A84DC01CB010F
:1016E000840D951DA61DB71D8F839887A987BA877E
:1016F0000E94B3184F80588469847A8436E3531A61
:1017000035E6630A34EC730A28EE33E040E050E03B
:101710000E941B242B8F3C8F4D8F5E8F9B01AC0151
:1017200060E472E48FE090E00E94F723A30192014D
:10173000261B370B480B590BCA01B9014B805C8043
:101740006D807E8031E0431A5108610871082B8D4D
:101750003C8D4D8D5E8D421A530A640A750A20E055
:101760003AEC4AE95BE30E941B24420E531E641EBE
:10177000751ED8011C964D925D926D927C921F97BA
:10178000F801608B718B828B938B0E94B318AB89AD
:10179000BC896D937D938D939C93139792CD8630E6
:1017A000910559F46D897E898F8D98A10E94180743
:1017B00081E0E9A1FAA1808384CD8B30910521F4E9
:1017C000A98DBA8D1C927DCDFC017A97EE0FFF1F7B
:1017D000E00FF11F80819181009709F472CDDC0147
:1017E000ED91FC910190F081E02D6D897E89099544
:1017F00068CDF801E056FF4F8081882319F1780108
:10180000B1EAEB0EF11CF70180819181A281B381D5
:10181000A5019401281B390B4A0B5B0BDA01C901A6
:10182000853C9940A105B10568F0C8010E940417E4
:10183000D7018D929D92AD92BC92139703C08EEF0B
:101840009FEF02C080E090E0A8960FB6F894DEBF4C
:101850000FBECDBFDF91CF911F910F91FF90EF9001
:10186000DF90CF90BF90AF909F908F907F906F90C0
:101870005F904F900895CF92DF92EF92FF92FC011C
:101880001082118212821382DB0120E030E04D9140
:1018900050E0022E02C0440F551F0A94E2F7052EB5
:1018A000000C660B770BC080D180E280F3804C295E
:1018B0005D296E297F294083518362837383285F6A
:1018C0003F4F2032310519F7FF90EF90DF90CF9016
:1018D0000895CF92DF92EF92FF9220E030E06A010C
:1018E0007B01022E04C0F694E794D794C7940A941F
:1018F000D2F7FC01C192CF01285F3F4F2032310562
:1019000071F7FF90EF90DF90CF900895CF92DF9224
:10191000EF92FF920F931F93CF93DF93CDB7DEB774
:10192000A8970FB6F894DEBF0FBECDBF882309F489
:1019300000C1CE0149960E94BF1580E1FE01799653
:10194000A8E2B6E001900D928A95E1F784E2E4E91D
:10195000F4E0DF011D928A95E9F784E290E0A0E0CF
:10196000B0E08093940490939504A0939604B09370
:1019700097048091810790918207A0918307B0918D
:1019800084078093980490939904A0939A04B09349
:101990009B040E94B3186093A4047093A5048093E1
:1019A000A6049093A7048E01035F1F4F8CE0F801FB
:1019B00011928A95E9F78BE090E0A0E0B0E0809387
:1019C0009C0490939D04A0939E04B0939F0444E1D3
:1019D00050E06BE777E0CE0101960E94FB11FE011B
:1019E0003196D80141915191619171914D935D93DF
:1019F0006D937D93E017F107A9F78D859E85AF85DF
:101A0000B8898093A8049093A904A093AA04B093E2
:101A1000AB0489899A89AB89BC898093AC04909383
:101A2000AD04A093AE04B093AF048D899E89AF89B5
:101A3000B88D8093B0049093B104A093B204B09396
:101A4000B30484E2E0E7F4E0DF011D928A95E9F750
:101A500084E290E0A0E0B0E0809370049093710481
:101A6000A0937204B09373048091810790918207D0
:101A7000A0918307B09184078093740490937504B8
:101A8000A0937604B09377040E94B3186093800407
:101A90007093810480938204909383048CE0F80116
:101AA00011928A95E9F78AE090E0A0E0B0E0809397
:101AB000780490937904A0937A04B0937B0448E26D
:101AC00050E06BE777E0CE0101960E94FB11FE012A
:101AD0003196D80141915191619171914D935D93EE
:101AE0006D937D93E017F107A9F78D859E85AF85EE
:101AF000B8898093840490938504A0938604B0935E
:101B0000870489899A89AB89BC89809388049093DA
:101B10008904A0938A04B0938B048D899E89AF8930
:101B2000B88D80938C0490938D04A0938E04B09311
:101B30008F04C0903006D0903106E0903206F090CD
:101B40003306A701960160912C0670912D068091B5
:101B50002E0690912F060E94FA21811156C02091E5
:101B60003406309135064091360650913706C7014C
:101B7000B6010E94FA21811148C0C0908804D0901B
:101B80008904E0908A04F0908B04A701960160918B
:101B900084047091850480918604909187040E944A
:101BA000FA21811132C020918C0430918D04409132
:101BB0008E0450918F04C701B6010E94FA21811151
:101BC00024C0C090AC04D090AD04E090AE04F0907E
:101BD000AF04A70196016091A8047091A9048091B7
:101BE000AA049091AB040E94FA2181110EC011E069
:101BF000A70196016091B0047091B1048091B20484
:101C00009091B3040E94FA21811110E0812FA896CF
:101C10000FB6F894DEBF0FBECDBFDF91CF911F91FD
:101C20000F91FF90EF90DF90CF900895CF93DF93C7
:101C300083EA96E00E94E10885E390E00E944E1658
:101C4000282F30E0C8E5D6E0982F92959695969586
:101C500093709A83A90194E0559547959A95E1F779
:101C600043704B83359527953595279523702C83A5
:101C700083708D8384E390E00E944E168E83BE01B4
:101C80008EE496E00E94D30883EA96E0DF91CF913C
:101C90000C94E10884EF90E00E94BA16609122064D
:101CA000709123068AE594E00E9455264AE554E0A7
:101CB00064E083EA96E00E94481462E370E080E00A
:101CC00090E00E94DB17E0E3F1E02491ECE1F1E029
:101CD0008491882399F090E0880F991FFC01E458C3
:101CE000FF4FA591B491FC01E05FFE4F8591949167
:101CF0008FB7F894EC91E22BEC938FBF60E082E019
:101D00000C948E17AF92BF92CF92DF92EF92FF9218
:101D10000F931F93CF93DF9380E00E94860C811175
:101D200038C00E94B318DC01CB019C01AD0160E01A
:101D300070E080E090E0A090B804B090B904C0904A
:101D4000BA04D090BB04E090BC04F090BD040091B4
:101D5000BE041091BF040E944324243F314041053A
:101D60005105610571058105910509F090F4109206
:101D700001011092000183EA96E0DF91CF911F915B
:101D80000F91FF90EF90DF90CF90BF90AF900C94A9
:101D9000E108809100019091010197FD13C087E057
:101DA00091E00E94BA1660912206709123068AE59E
:101DB00094E00E9455264AE554E062E083EA96E00A
:101DC0000E94481480910001909101010196909326
:101DD000010180930001059774F20E944A0ECBCF57
:101DE000CF92DF92EF92FF920F931F93CF93DF93E7
:101DF0006C017A018B01C0E0D0E0CE15DF0581F0E7
:101E0000D8016D918D01D601ED91FC910190F08189
:101E1000E02DC6010995892B11F02196EECF7E01A8
:101E2000C701DF91CF911F910F91FF90EF90DF904D
:101E3000CF900895FC01538D448D252F30E0842FE1
:101E400090E0821B930B541710F0CF9608950197E2
:101E50000895FC01918D828D981761F0828DDF01CC
:101E6000A80FB11D5D968C91928D9F5F9F73928F8D
:101E700090E008958FEF9FEF0895FC01918D828D82
:101E8000981731F0828DE80FF11D858D90E008954F
:101E90008FEF9FEF0895FC01918D228D892F90E0A7
:101EA000805C9F4F821B91098F739927089585E865
:101EB00095E00E944B0F21E0892B09F420E0822F4E
:101EC0000895FC01848DDF01A80FB11DA35ABF4FF7
:101ED0002C91848D90E001968F739927848FA68929
:101EE000B7892C93A089B1898C91837080648C937D
:101EF000938D848D981306C00288F389E02D80812C
:101F00008F7D80830895EF92FF920F931F93CF935D
:101F1000DF93EC0181E0888F9B8D8C8D981305C039
:101F2000E889F989808185FD26C0F62E0B8D10E0A9
:101F30000F5F1F4F0F731127E02E8C8DE8120CC01E
:101F40000FB607FCFACFE889F989808185FFF5CFC4
:101F5000CE010E94610FF1CF8B8DFE01E80FF11DC4
:101F6000E35AFF4FF0829FB7F8940B8FEA89FB8901
:101F7000808180620AC09FB7F894EE89FF896083F0
:101F8000E889F98980818370806480839FBF81E0C4
:101F900090E0DF91CF911F910F91FF90EF90089506
:101FA000CF93DF93EC01888D8823C9F0EA89FB8900
:101FB000808185FD05C0A889B9898C9186FD0FC0F7
:101FC0000FB607FCF5CF808185FFF2CFA889B989CC
:101FD0008C9185FFEDCFCE010E94610FE7CFDF919D
:101FE000CF91089580E090E0892B29F00E94570F4F
:101FF00081110C940000089585ED8093BC008091C0
:10200000BC0084FDFCCF1092840508954091F50436
:10201000262F30E0240F311D21323105DCF42091D0
:1020200084052430C9F4FC0180E090E0861758F460
:102030003091F5042191DC01AB52BB4FA30FB11DD0
:102040002C930196F3CF8091F504680F6093F5040B
:1020500080E0089581E0089582E00895089508954C
:102060000895E091190580911805E81730F4F0E023
:10207000E25CFA4F808190E008958FEF9FEF089522
:102080009091190580911805981750F4E92FF0E008
:10209000E25CFA4F208130E09F5F9093190502C007
:1020A0002FEF3FEFC90108958091180590E020912E
:1020B0001905821B91090895CF92DF92EF92FF924A
:1020C0000F931F93CF93DF937C01CB018A01209163
:1020D0001A05222389F0EB016B01C40ED51ECC1525
:1020E000DD0569F06991D701ED91FC910190F081D6
:1020F000E02DC7010995F3CF642F0E940610C80197
:10210000DF91CF911F910F91FF90EF90DF90CF90D3
:102110000895CF93DF931F92CDB7DEB769832091E7
:102120001A052223D1F020913D05203240F021E014
:1021300030E0FC013383228380E090E015C0809181
:102140001B05E82FF0E0E45EFA4F998190838F5FE2
:1021500080931B0580933D0505C061E0CE0101968B
:102160000E94061081E090E00F90DF91CF910895DA
:10217000089580E090E008958FED93E0089588E45D
:1021800091E0089583E090E0089580569F4FFC0110
:10219000808108950E9447260F931F93CF93DF936A
:1021A0008C01EB0188E2FB0111928A95E9F74BE083
:1021B00050E060E074E0CE010E945C261B8681E066
:1021C00090E0A0E0B0E08C879D87AE87BF87F801E4
:1021D00086819781A085B185888B998BAA8BBB8BD3
:1021E00083E090E0A0E0B0E08C8B9D8BAE8BBF8B4A
:1021F0001CA21DA21EA21FA2188E198E1A8E1B8E43
:102200001C8E1D8E1E8E1F8E8AE097EDA3E2BCE30E
:1022100088A399A3AAA3BBA3DF91CF911F910F918C
:1022200008950C94F8240F931F93CF93DF93EC0140
:102230008C01085F1F4FEC89FD89B801069609954E
:10224000B801CE010A96DF91CF911F910F910C94A6
:10225000D3081F920F920FB60F9211242F933F9322
:102260004F935F936F937F938F939F93AF93BF939E
:10227000EF93FF9385E895E00E94610FFF91EF9146
:10228000BF91AF919F918F917F916F915F914F918E
:102290003F912F910F900FBE0F901F9018951F9296
:1022A0000F920FB60F9211242F938F939F93EF935A
:1022B000FF93E0919505F09196058081E0919B0553
:1022C000F0919C0582FD12C0908180919E058F5FE8
:1022D0008F7320919F05821751F0E0919E05F0E0E9
:1022E000EB57FA4F958F80939E0501C08081FF9137
:1022F000EF919F918F912F910F900FBE0F901F9094
:1023000018951F920F920FB60F9211242F933F939F
:102310004F935F936F937F938F939F93AF93BF93ED
:10232000EF93FF93E0916E04F0916F040995FF9194
:10233000EF91BF91AF919F918F917F916F915F913D
:102340004F913F912F910F900FBE0F901F901895B6
:10235000DF92EF92FF920F931F93CF93DF938C0145
:10236000D42EE52EF22EDC0113968C91139791E07A
:1023700090931A0580933C0510921B0510923D0521
:1023800014968D919C911597DC01ED91FC91019033
:10239000F081E02D099581E00E9463156F2DB0E278
:1023A000BF1508F460E2F80183810E9421151092A4
:1023B000190580931805CD2DDE2DCE018F0D911DB1
:1023C0007C01CE15DF0571F0D80114968D919C919A
:1023D0001597DC01ED91FC910284F385E02D0995C0
:1023E0008993EFCF81E0DF91CF911F910F91FF9003
:1023F000EF90DF900895AF92BF92CF92DF92EF926D
:10240000FF920F931F93CF93DF9300D000D000D0A3
:10241000CDB7DEB78C01CB015A012CE0F801119247
:102420002A95E9F7AE014F5F5F4F26E0FA0111925E
:102430002A95E9F726E0B5010E94A81169817A8101
:10244000CB80DC80ED80FE80F4E1AF16B104C1F0FA
:1024500050F4E8E0AE16B10409F441C0FEE0AF1656
:10246000B10471F06FC088E2A816B104C1F1EEE2C8
:10247000AE16B104A1F1FAE1AF16B10409F062C0E1
:10248000072E000C880B990B0E94012220E030E0FF
:1024900040E85DE30E946022F801608371838283DB
:1024A0009383B601DD0C880B990B0E94012220E07A
:1024B00030E040E85DE30E946022F80164837583A8
:1024C00086839783B701FF0C880B990B0E9401222A
:1024D00020E030E040E85DE30E9460222EC0072E3D
:1024E000000C880B990B0E94012220E030E048ECA0
:1024F00052E40E948523F801608371838283938371
:10250000B601DD0C880B990B0E94012220E030E01F
:1025100048EC52E40E948523F80164837583868326
:102520009783B701FF0C880B990B0E94012220E0D2
:1025300030E048EC52E40E948523F80160877187FF
:1025400082879387C80126960FB6F894DEBF0FBE28
:10255000CDBFDF91CF911F910F91FF90EF90DF9052
:10256000CF90BF90AF900895EF92FF920F931F937B
:10257000CF93DF93CDB7DEB72C970FB6F894DEBFBD
:102580000FBECDBF7C018B0184E2FB0111928A95C5
:10259000E9F784E290E0A0E0B0E0FB018083918362
:1025A000A283B383F70186819781A085B185FB0162
:1025B00084839583A683B78383E090E0A0E0B0E0B6
:1025C00080879187A287B3870E94B318F801608B38
:1025D000718B828B938B4AE150E0B701CE0101965B
:1025E0000E94FB1189819A81AB81BC81F801848BA7
:1025F000958BA68BB78B8D819E81AF81B885808F9F
:10260000918FA28FB38F89859A85AB85BC85848F86
:10261000958FA68FB78F81E02C960FB6F894DEBF0A
:102620000FBECDBFDF91CF911F910F91FF90EF9023
:1026300008951F920F920FB60F9211242F933F937C
:102640004F935F936F937F938F939F93AF93BF93BA
:10265000EF93FF938091B900887F803609F49CC086
:1026600068F5883209F45BC090F4803109F454C0F5
:1026700038F4882309F4F6C0883009F44DC0F6C058
:10268000883109F44CC0803209F45DC0EFC0803459
:1026900009F468C048F4803309F455C0883309F060
:1026A000E5C080938205D8C0803509F44FC08835D5
:1026B00009F45DC0883409F0D9C0D6C0883909F45E
:1026C000C7C0A8F4883709F467C038F4883609F41D
:1026D00063C0803709F460C0C9C0883809F4B8C045
:1026E000803909F45FC0803809F0C0C05BC0803B0E
:1026F00009F486C038F4803A09F466C0883A09F4CF
:102700007FC0B4C0803C09F4A7C0883C09F4A4C0D1
:10271000883B09F48AC0AAC080917F0510C09091BF
:10272000810580918005981770F5E091810581E021
:102730008E0F80938105F0E0E25AFA4F80818093FA
:10274000BB0085EC86C0809382058EC0E091810538
:1027500081E08E0F809381058091BB00F0E0E25A0A
:10276000FA4F808390918105809180056EC0E09141
:10277000810581E08E0F809381058091BB00F0E0A0
:10278000E25AFA4F80838091830581116DC081E008
:1027900080937E0584EA61C083E080938405109273
:1027A0001705CFCF80911705803208F051C0E09116
:1027B000170581E08E0F809317058091BB00F0E034
:1027C000E950FB4F8083BDCF85EC8093BC00109215
:1027D000840580911705803230F4E0911705F0E010
:1027E000E950FB4F10826091170570E0E091870778
:1027F000F091880787EF94E009951092170536C08D
:1028000084E0809384051092F6041092F504E09120
:102810008907F0918A0709958091F504811105C017
:1028200081E08093F5041092D504E091F60481E0F4
:102830008E0F8093F604F0E0EB52FB4F8081809383
:10284000BB009091F6048091F504981708F479CFB5
:1028500085E88093BC000AC085EC8093BC00109290
:10286000840504C0109282050E94FC0FFF91EF9135
:10287000BF91AF919F918F917F916F915F914F9198
:102880003F912F910F900FBE0F901F9018950895B4
:10289000CF93DF9300D000D01F92CDB7DEB720E4F6
:1028A00031E03A8329836B835D834C83DC01ED91B6
:1028B000FC910190F081E02DAE014F5F5F4F67E02A
:1028C00070E009950F900F900F900F900F90DF918F
:1028D000CF910895CF92DF92EF92FF920F931F93C3
:1028E000CF93DF93643671053CF0FC01E056FF4F57
:1028F0002081222309F456C0DA018B01EC01BC01CE
:10290000635C7F4FED91FC910190F081E02DCA0155
:1029100009952FEF2EAB2EEF2FAB88AF99AF292F54
:10292000280F20952AAF0BAF1CAFFE01FB9645E0A8
:1029300050E020E030E0DC011696A417B50734F033
:102940006191260F311D4F5F5F4FF7CF8C01085FFC
:102950001F4FFE01E80FF91F209525AF0B3511051C
:10296000C4F46E0186E3C80ED11C7601C7018C1930
:102970009D0980179107CCF48A819B81D7016D91C5
:102980007D01DC01ED91FC910190F081E02D099534
:10299000EDCF47E054E063E0CE010E9448148FEF92
:1029A0009FEF04C080E090E001C0C801DF91CF91AB
:1029B0001F910F91FF90EF90DF90CF90089580913D
:1029C000220690912306009711F00E94F82410929D
:1029D00023061092220610922706109226061092C5
:1029E0002506109224060895CF93DF93EC01809181
:1029F000220690912306009739F020912406309109
:102A000025062C173D07B8F4BE016F5F7F4F0E946B
:102A10008125009791F09093230680932206D0930E
:102A20002506C09324062091260630912706232BE5
:102A300011F4FC01108281E001C080E0DF91CF91B0
:102A40000895909184059111FCCF91E090938405B5
:102A5000909383052FEF2093820510928105260F16
:102A60002093800590937F0590917F05880F892B97
:102A700080937F0580917E05813061F410927E0500
:102A800080917F058093BB008091BC0083FDF8CFCF
:102A900085EC01C085EE8093BC0080918405813077
:102AA000E1F380918105861710F460918105AEE510
:102AB000B5E0EEE3F5E080E0861721F09D9191937B
:102AC0008F5FFACF0895282F30913D05313208F0FD
:102AD0004AC0809184058111FCCF90913C0542E071
:102AE00040938405209383052FEF20938205109255
:102AF000810530938005ECE1F5E0AEE5B5E020E03E
:102B0000321721F041914D932F5FFACF10927F053C
:102B100020917F05990F922B90937F0590917E05D0
:102B2000913061F410927E0590917F059093BB00E7
:102B30009091BC0093FDF8CF95EC01C095EE909379
:102B4000BC00909184059230E1F3909182059F3F03
:102B500079F080918205803241F080918205803346
:102B600031F084E005C081E003C082E001C083E071
:102B700010921B0510923D0510921A0508954F9270
:102B80005F926F927F928F929F92AF92BF92CF92FD
:102B9000DF92EF92FF920F931F93CF93DF93CDB706
:102BA000DEB728970FB6F894DEBF0FBECDBF8C01FD
:102BB000AE014F5F5F4F88E0FA0111928A95E9F705
:102BC00028E060E270E08BE797E00E94A8116F8137
:102BD0007885072E000C880B990B0E94012220E0BB
:102BE00030E040E858E30E9460226B017C016D8177
:102BF0007E81072E000C880B990B0E94012220E099
:102C000030E040E858E30E9460224B015C016B8198
:102C10007C81072E000C880B990B0E94012220E07A
:102C200030E040E858E30E9460222B013C016981BA
:102C30007A81072E000C880B990B0E94012220E05C
:102C400030E040E858E30E946022F801608371831D
:102C500082839383448255826682778280869186BE
:102C6000A286B386C486D586E686F786C8012896EE
:102C70000FB6F894DEBF0FBECDBFDF91CF911F918D
:102C80000F91FF90EF90DF90CF90BF90AF909F900B
:102C90008F907F906F905F904F900895CF93DF93C8
:102CA000CBE7D7E09B8121E020931A0590933C0568
:102CB00010921B0510923D05AC81BD81ED91FC91F8
:102CC00011970190F081E02D682FCD01099581E0E9
:102CD0000E94631561E08B810E94211510921905F5
:102CE000809318058C819D81DC01ED91FC9102841B
:102CF000F385E02D0995DF91CF91089585E390E06C
:102D00000E944E16282F30E0A90194E05595479572
:102D10009A95E1F74370359527953595279523705A
:102D2000982F9370E0918507F09186073197EA30EC
:102D3000F10588F4EC5CFF4F0C943D2481E02330D6
:102D4000B9F417C02330A1F402C0933089F481E0B4
:102D5000433071F40EC082958695869583708330DA
:102D600039F4433029F4233019F481E0933009F029
:102D700080E008950F931F93CF93DF93EC010097AA
:102D800039F00E94F1218C010E94F414811103C0DA
:102D90000E94DF140BC01093270600932606BE0185
:102DA00080912206909123060E94EA2182E296E019
:102DB000DF91CF911F910F910895209133073091AA
:102DC0003407232B49F02091350730913607232B08
:102DD000C9F421E030E002C020E030E0F901E85B16
:102DE000FF4FEE0FFF1FED55F94F918380832B5955
:102DF0003F4FFC013583248323EA36E03783268363
:102E000081E0089580E008950F931F93CF93DF939F
:102E1000CDB7DEB72A970FB6F894DEBF0FBECDBF91
:102E20008C018BE591E09A8389831B821C821D8231
:102E30001E821F82188619861A86D801ED91FC9190
:102E40000190F081E02DAE014F5F5F4F6AE070E0CE
:102E5000C80109950E94B318F801608771878287BD
:102E600093872A960FB6F894DEBF0FBECDBFDF91D1
:102E7000CF911F910F9108953FB7F89480919007DB
:102E800090919107A0919207B091930726B5A89BC6
:102E900005C02F3F19F00196A11DB11D3FBFBA2FEC
:102EA000A92F982F8827820F911DA11DB11DBC014C
:102EB000CD0142E0660F771F881F991F4A95D1F711
:102EC00008951F93CF93DF93162FCBE7D7E09B8115
:102ED00021E020931A0590933C0510921B05109257
:102EE0003D05AC81BD81ED91FC9111970190F08180
:102EF000E02D682FCD0109958C819D81DC01ED913C
:102F0000FC910190F081E02D612F099581E00E94F4
:102F1000631581E0DF91CF911F91089590E0FC014E
:102F2000EE5BFE4F2491FC01E25DFE4F3491FC010B
:102F3000E65EFE4FE491EE2309F43CC0222339F112
:102F4000233091F038F42130A9F0223001F584B516
:102F50008F7D12C0273091F02830A1F02430B9F4D1
:102F6000809180008F7D03C0809180008F77809357
:102F700080000DC084B58F7784BD09C08091B000FA
:102F80008F7703C08091B0008F7D8093B000F0E018
:102F9000EE0FFF1FE05FFE4FA591B4919FB7F8942D
:102FA000611104C08C913095382302C0EC913E2B06
:102FB0003C939FBF08958F929F92AF92BF92CF9202
:102FC000DF92EF92FF926B017C010E943C174B0154
:102FD0005C01C114D104E104F104F1F00E943C173A
:102FE000DC01CB0188199909AA09BB09883E9340E5
:102FF000A105B10570F321E0C21AD108E108F1087A
:1030000088EE880E83E0981EA11CB11CC114D10467
:10301000E104F10419F7DDCFFF90EF90DF90CF903E
:10302000BF90AF909F908F900895EBE7F7E0828775
:103030009387682F8DE390E00E9461176EE170E046
:1030400080E090E00C94DB1710921905109218059F
:1030500010921B0510923D051092840581E080932B
:10306000830510927E0561E082E10E948E1761E087
:1030700083E10E948E178091B9008E7F8093B90002
:103080008091B9008D7F8093B90088E48093B80067
:1030900085E48093BC008EE290E190938A07809350
:1030A00089078FE290E1909388078093870780E0FB
:1030B00090E00E944E16803A71F480E090E00E9409
:1030C000151860E28FE390E00E9461176EE170E0F6
:1030D00080E090E00EC068EE73E080E090E00E9437
:1030E000DB1780E090E00E944E16803A31F380E0DA
:1030F00008950E94DB1780E090E00E944E16803A0F
:1031000029F06AE070E080E090E0F3CF62E370E0E5
:1031100080E090E00E94DB1760E08EE390E00E9488
:1031200061176AE070E080E090E00E94DB1760E0E9
:1031300087E090E00E94611760E08FE390E00E94DA
:1031400061176AE070E080E090E00E94DB178CE09D
:1031500090E00E94151864E170E080E090E00E9429
:10316000DB1781E008952FB7F89460918C07709178
:103170008D0780918E0790918F072FBF08951F9222
:103180000F920FB60F9211242F933F938F939F931B
:10319000AF93BF9380918C0790918D07A0918E077C
:1031A000B0918F0730918B0723E0230F2D3720F448
:1031B0000196A11DB11D05C026E8230F0296A11D91
:1031C000B11D20938B0780938C0790938D07A0935C
:1031D0008E07B0938F078091900790919107A091EF
:1031E0009207B09193070196A11DB11D809390079E
:1031F00090939107A0939207B0939307BF91AF91DB
:103200009F918F913F912F910F900FBE0F901F9024
:103210001895CF93DF93CDB7DEB7C455D1090FB65C
:10322000F894DEBF0FBECDBF789484B5826084BDB4
:1032300084B5816084BD85B5826085BD85B58160BA
:1032400085BD80916E00816080936E001092810038
:1032500080918100826080938100809181008160F3
:1032600080938100809180008160809380008091B4
:10327000B10084608093B1008091B0008160809340
:10328000B00080917A00846080937A0080917A0007
:10329000826080937A0080917A00816080937A00C6
:1032A00080917A00806880937A001092C100E0E3F8
:1032B000F1E02491ECE1F1E084918823C9F090E001
:1032C000880F991FFC01E458FF4F45915491FC0170
:1032D000E05FFE4FA591B4919FB7F894FA01808109
:1032E000322F309583238083EC91E22BEC939FBFA8
:1032F00080E492E4AFE0B0E08093A7069093A80644
:10330000A093A906B093AA06E091A506F091A6069F
:10331000A089B18982E08C93A485B5851C92A6858D
:10332000B78581E08C93108EA489B58986E08C9353
:10333000A289B3898C9180618C93A289B3898C9185
:1033400088608C93A289B3898C9180688C93028861
:10335000F389E02D80818F7D808310923A0710924F
:10336000390710923C0710923B07109240071092C9
:103370003F0710923E0710923D078FE596E00E94AE
:10338000DD168EE496E00E94DD1682E496E00E944F
:10339000DD168091370790913807892B61F488E317
:1033A00096E0909338078093370784E690E09093F7
:1033B0003B0680933A06B0904307B11005C083EAFC
:1033C00096E00E94E108F7CF109250078CE091E060
:1033D0009A83898381E092E09C838B83AE014F5F67
:1033E0005F4F66E070E083EA96E00E946A140E94F4
:1033F000B3186B017C01F8EECF0EF3E0DF1EE11C89
:10340000F11C8091500781110EC083EA96E00E9462
:10341000E1080E94B318C616D706E806F90688F731
:1034200048E052E01FC08091530790915407A0914B
:103430005507B09156070197A105B10589F4E091B0
:103440005B07F0915C0781E040815181628173816B
:10345000452B462B472B09F480E08093D40409C008
:103460004DE252E062E083EA96E00E944814109236
:10347000D40464E670E080E090E00E94DB1780E115
:1034800097E2A0E0B0E08093B7069093B806A093CF
:10349000B906B093BA068B8180937D0788E280934A
:1034A0007E070FE617E01093800700937F07BAE2CC
:1034B000CB2ED12CE12CF12CC0928107D092820727
:1034C000E0928307F09284078B859C859093860712
:1034D000809385070E942418882319F08EE990E0D4
:1034E0001EC08B8180937D0789E280937E071093B5
:1034F000800700937F07C0928107D0928207E092F5
:103500008307F09284078B859C8590938607809330
:1035100085070E9424188823A1F085E990E00E9485
:10352000BA1660912206709123068AE594E00E9403
:1035300055264AE554E061E083EA96E00E9448148B
:103540001BC086E890E00E94BA1660912206709136
:1035500023068AE594E00E9455264AE554E064E09B
:1035600083EA96E00E94481462E370E080E090E015
:103570000E94DB170E944A0EF090D404FF20A1F0B5
:1035800088EE90E00E94BA166091220670912306A0
:103590008AE594E00E9455264AE554E062E083EA19
:1035A00096E00E944814E1C06E012FE3C20ED11CC8
:1035B00000E010E04601C8010E941E23D6018D9351
:1035C0006D010F5F1F4F04301105A9F7BE016F5F3A
:1035D0007F4F8BE797E00E94CC1049895A896B890D
:1035E0007C89F40180819181A281B38148175907B8
:1035F0006A077B07A1F088EB90E00E94BA16609101
:103600002206709123068AE594E00E9455264AE539
:1036100054E061E083EA96E00E944814A4C087EA7F
:1036200090E00E94BA1660912206709123068AE506
:1036300094E00E9455264AE554E061E083EA96E072
:103640000E9448147E01F9E2EF0EF11C04E010E044
:10365000C8010E941E23D7018D937D010F5F1F4F6C
:103660000A311105A9F7009185071091860780E0BE
:1036700090E00E94151869E170E080E090E00E94FF
:10368000DB1769A585E590E00E9461176AA586E5CC
:1036900090E00E9461176BA587E590E00E9461179A
:1036A0006CA588E590E00E9461176DA589E590E022
:1036B0000E9461176EA58AE590E00E9461176FA5D0
:1036C0008BE590E00E94611768A98CE590E00E946C
:1036D000611769A98DE590E00E9461176AA98EE5DE
:1036E00090E00E9461176BA98FE590E00E9461173E
:1036F0006CA980E690E00E9461176DA981E690E0D8
:103700000E9461176EA982E690E00E9461176FA97E
:1037100083E690E00E94611768AD84E690E00E9425
:10372000611769AD85E690E00E9461176AAD86E693
:1037300090E00E9461176BAD87E690E00E946117F0
:103740006CAD88E690E00E9461176DAD89E690E06F
:103750000E9461176EAD8AE690E00E946117C80171
:103760000E941518FB2CF092D30461E070E080E019
:1037700090E00E94DB17009185071091860780E09A
:1037800090E00E94151869E170E080E090E00E94EE
:10379000DB1760E087E090E00E94611760E88FE34C
:1037A00090E00E9461176AE070E080E090E00E9483
:1037B000DB17C8010E94151864E170E080E090E01A
:1037C0000E94DB17DD24D39406E512E0AAE5EA2E79
:1037D000A4E0FA2E8091C50481110CC00E94B31898
:1037E0006093C1047093C2048093C3049093C40493
:1037F000D092C5040E947E16882389F08091C0046F
:1038000081110AC00E94B3186093C1047093C2046E
:103810008093C3049093C404D092C00402C0109259
:10382000C0048091C0048823B1F00E94B318809036
:10383000C1049090C204A090C304B090C404DC0101
:10384000CB0188199909AA09BB09883E9340A105B3
:10385000B10508F062C085E390E00E944E16982FF3
:1038600092959695969593709093D004282F30E07A
:10387000A90164E0559547956A95E1F74370409337
:10388000CF04359527953595279523702093CE0441
:1038900083708093CD041F928F931F922F931F925A
:1038A0004F931F929F931F930F93FF92EF920E944B
:1038B0006B264AE554E060E083EA96E00E944814F3
:1038C0000E94160E83EA96E00E94E10881E00E94C1
:1038D000860C0FB6F894DEBF0FBECDBF882371F003
:1038E0008091D1049091D20401969093D204809358
:1038F000D104039738F00E944A0E04C01092D204FB
:103900001092D10483EA96E00E94E1086AEF70E029
:1039100080E090E00E94DB175DCF86EC90E00E9493
:10392000BA1660912206709123068AE594E00E94FF
:1039300055264AE554E061E083EA96E00E94481487
:103940008091D304882329F08091D404882309F43A
:103950000EC1BE016F5F7F4F8BE797E00E94CC10D6
:103960007E01F1E1EF0EF11C00E010E0D701DD90E7
:103970007D01C8010E941E23D81621F06D2DC801BB
:103980000E9426230F5F1F4F0430110579F70E9414
:103990007E16882309F4C1C0E0908507F090860761
:1039A00080E090E00E94151869E170E080E090E00E
:1039B0000E94DB1786E590E00E944E16182F85E5E1
:1039C00090E00E944E16212F30E0322F2227282B24
:1039D0003AA729A788E590E00E944E16182F87E5A0
:1039E00090E00E944E16212F30E0322F2227282B04
:1039F0003CA72BA78AE590E00E944E16182F89E578
:103A000090E00E944E16212F30E0322F2227282BE3
:103A10003EA72DA78CE590E00E944E16182F8BE54F
:103A200090E00E944E16212F30E0322F2227282BC3
:103A300038AB2FA78EE590E00E944E16182F8DE52B
:103A400090E00E944E16212F30E0322F2227282BA3
:103A50003AAB29AB80E690E00E944E16182F8FE516
:103A600090E00E944E16212F30E0322F2227282B83
:103A70003CAB2BAB82E690E00E944E16182F81E6FD
:103A800090E00E944E16212F30E0322F2227282B63
:103A90003EAB2DAB84E690E00E944E16182F83E6D5
:103AA00090E00E944E16212F30E0322F2227282B43
:103AB00038AF2FAB86E690E00E944E16182F85E6B1
:103AC00090E00E944E16212F30E0322F2227282B23
:103AD0003AAF29AF88E690E00E944E16182F87E68D
:103AE00090E00E944E16212F30E0322F2227282B03
:103AF0003CAF2BAF8AE690E00E944E16182F89E665
:103B000090E00E944E16212F30E0322F2227282BE2
:103B10003EAF2DAFC7010E9415187E01B9E2EB0E32
:103B2000F11C04E010E0F701D1907F01C8010E9470
:103B30001E23D81621F06D2DC8010E9426230F5F89
:103B40001F4F0A31110579F785ED90E00E94BA16F2
:103B500060912206709123068AE594E00E94552622
:103B60004AE554E061E083EA96E00E94481480E16F
:103B7000809381001092800080E49CE990938700FC
:103B80008093860082E18093810082E89EE090939A
:103B90006F0480936E0481E080936F0083EA96E067
:103BA0000E94E10814E2E4E28E2E912CA12CB12CAB
:103BB0001E01F9E22F0E311C0CE09E01235F3F4FE6
:103BC00065963FAF2EAF6597FAE04F2E512C612CD2
:103BD000712C83EA96E00E94E108CE018D5B9F4F35
:103BE0000E94BF1580E1FE01ED5BFF4FA8E2B6E049
:103BF00001900D928A95E1F7A4E9B4E0E12F1D92BE
:103C0000EA95E9F78092940490929504A092960424
:103C1000B09297048091810790918207A0918307C9
:103C2000B09184078093980490939904A0939A0488
:103C3000B0939B040E94B3186093A4047093A504EE
:103C40008093A6049093A704D101E02F1D92EA95DA
:103C5000E9F78BE090E0A0E0B0E080939C049093C3
:103C60009D04A0939E04B0939F0444E150E06BE751
:103C700077E0CE0101960E94FB11FE013196D10141
:103C800041915191619171914D935D936D937D93AC
:103C900065962EAD3FAD65972E173F0789F789A52D
:103CA0009AA5ABA5BCA58093A8049093A904A09362
:103CB000AA04B093AB048DA59EA5AFA5B8A9809327
:103CC000AC049093AD04A093AE04B093AF0489A963
:103CD0009AA9ABA9BCA98093B0049093B104A09316
:103CE000B204B093B304A0E7B4E0E12F1D92EA95CB
:103CF000E9F78092700490927104A0927204B092DD
:103D000073048091810790918207A0918307B091FD
:103D100084078093740490937504A0937604B09301
:103D200077040E94B3186093800470938104809399
:103D3000820490938304D101E02F1D92EA95E9F764
:103D4000409278045092790460927A0470927B04D5
:103D500048E250E06BE777E0CE0101960E94FB114C
:103D6000FE013196D10141915191619171914D9333
:103D70005D936D937D9365962EAD3FAD65972E1740
:103D80003F0789F789A59AA5ABA5BCA580938404B4
:103D900090938504A0938604B09387048DA59EA577
:103DA000AFA5B8A98093880490938904A0938A044E
:103DB000B0938B0489A99AA9ABA9BCA980938C0460
:103DC00090938D04A0938E04B0938F040E94B31837
:103DD00028EE33E040E050E00E941B24C090AF0684
:103DE000D090B006E090B106F090B206C20ED31E9D
:103DF000E41EF51E9B01AC0160E472E48FE090E0EC
:103E00000E94F7232091B3063091B4064091B50685
:103E10005091B606620F731F841F951F20E03AEC85
:103E20004AE95BE30E941B24C20ED31EE41EF51E6A
:103E3000C0927106D0927206E0927306F0927406F8
:103E40006093750670937606809377069093780654
:103E500082E592E090937A068093790680912C0611
:103E600090912D06A0912E06B0912F0680937B068F
:103E700090937C06A0937D06B0937E0680913006D9
:103E800090913106A0913206B091330680937F065F
:103E900090938006A0938106B093820680913406A9
:103EA00090913506A0913606B0913706809383062F
:103EB00090938406A0938506B09386068091280689
:103EC00090912906A0912A06B0912B06809387062F
:103ED00090938806A0938906B0938A068091840403
:103EE00090918504A0918604B091870480938B06FD
:103EF00090938C06A0938D06B0938E0680918804D3
:103F000090918904A0918A04B0918B0480938F06CC
:103F100090939006A0939106B093920680918C04A2
:103F200090918D04A0918E04B0918F04809393069C
:103F300090939406A0939506B09396068091A8045A
:103F40009091A904A091AA04B091AB048093970624
:103F500090939806A0939906B0939A068091AC042A
:103F60009091AD04A091AE04B091AF0480939B06F4
:103F700090939C06A0939D06B0939E068091B004FA
:103F80009091B104A091B204B091B30480939F06C4
:103F90009093A006A093A106B093A20669E676E0EE
:103FA0008FE596E00E94D30883EA96E00E94E1083C
:103FB0000E94160E0E94B3189B01AC016093B804D6
:103FC0003093B9044093BA045093BB041092BC04DC
:103FD0001092BD041092BE041092BF048BED9EE2BD
:103FE0000197F1F70E94F20FF4CD80912206909193
:103FF00023060C94F824109288051092870588EE09
:1040000093E0A0E0B0E08093890590938A05A093A7
:104010008B05B0938C0527E631E03093860520931D
:10402000850525EC30E0309392052093910524EC32
:1040300030E0309394052093930520EC30E03093EA
:1040400096052093950521EC30E030939805209358
:10405000970522EC30E030939A052093990526ECE1
:1040600030E030939C0520939B0510929E051092A2
:104070009F051092A0051092A10510927207109250
:1040800071078093730790937407A0937507B0939B
:10409000760789E791E09093700780936F0789EE28
:1040A00091E090937C0780937B078FEF9FEFDC017B
:1040B0008093810790938207A0938307B09384072E
:1040C00088E280937E078FE697E090938007809345
:1040D0007F078FED91E09093A4068093A30685E877
:1040E00095E09093A6068093A50680E091EEA0E06F
:1040F000B0E08093A7069093A806A093A906B0937A
:10410000AA061092430787EC91E0909352078093A0
:1041100051071092530710925407109255071092AE
:10412000560710925C0710925B0710925D07109281
:104130005E0710925F071092600710926607109258
:10414000650710926707109268071092690710922E
:104150006A0710926E0710926D0710923407109242
:1041600033071092360710923507109238071092D5
:104170003707ABEBB6E0E9EDF6E01D92EA17FB0777
:10418000E1F7119287E0E333F807D9F71092B70609
:104190001092B8061092B9061092BA068BEB91E015
:1041A00090936A06809369068FEA91E090936C067B
:1041B00080936B0610926D0610926E0610926F0639
:1041C0001092700610927106109272061092730689
:1041D0001092740610927506109276061092770669
:1041E000109278068FE394E090937A068093790694
:1041F00010927B0610927C0610927D0610927E062D
:1042000010927F061092800610928106109282060C
:1042100010928306109284061092850610928606EC
:1042200010928706109288061092890610928A06CC
:1042300010928B0610928C0610928D0610928E06AC
:1042400010928F061092900610929106109292068C
:10425000109293061092940610929506109296066C
:1042600010929706109298061092990610929A064C
:1042700010929B0610929C0610929D0610929E062C
:1042800010929F061092A0061092A1061092A2060C
:1042900080E494E09093600680935F0689E696E060
:1042A00090936206809361061092680610926706EA
:1042B00083EA91E0909359068093580610925A062B
:1042C00010925B0610925C0610925D0610925E06DC
:1042D00089E494E090934F0680934E0688E596E03B
:1042E00090935106809350061092570610925606EE
:1042F00087E991E090933906809338068BE891E046
:1043000090933F0680933E068BE891E090934106A0
:104310008093400683E594E09093430680934206A1
:1043200020E436E0309345062093440622E030E056
:1043300030934B0620934A0690933D0680933C06AB
:1043400080EA91E090934D0680934C0680E090E0E7
:10435000A0E8BFE38093280690932906A0932A063D
:10436000B0932B0610922C0610922D0610922E065A
:1043700010922F06109230061092310610923206DB
:1043800010923306109234061092350610923606BB
:1043900010923706109223061092220610922506DC
:1043A00010922406109227061092260680E090E0D4
:1043B0000E94F414811102C00C94DF14109227069D
:1043C000109226066FE374E08091220690912306F6
:1043D0000C945526FB01DC0105900D920020E1F7BD
:1043E0000895FC0105900020E9F7809590958E0FC7
:1043F0009F1F08950E943C2208F481E00895E894EC
:1044000009C097FB3EF490958095709561957F4F1C
:104410008F4F9F4F9923A9F0F92F96E9BB279395CA
:10442000F695879577956795B795F111F8CFFAF4DA
:10443000BB0F11F460FF1BC06F5F7F4F8F4F9F4F0B
:1044400016C0882311F096E911C0772321F09EE869
:10445000872F762F05C0662371F096E8862F70E0CF
:1044600060E02AF09A95660F771F881FDAF7880FA9
:104470009695879597F90895990F0008550FAA0BFF
:10448000E0E8FEEF16161706E807F907C0F0121667
:104490001306E407F50798F0621B730B840B950B6A
:1044A00039F40A2661F0232B242B252B21F40895BF
:1044B0000A2609F4A140A6958FEF811D811D08955C
:1044C0000E9473220C94E4220E94D62238F00E94AB
:1044D000DD2220F0952311F00C94CD220C94D322F0
:1044E00011240C9418230E94F52270F3959FC1F3B8
:1044F000950F50E0551F629FF001729FBB27F00D92
:10450000B11D639FAA27F00DB11DAA1F649F6627E6
:10451000B00DA11D661F829F2227B00DA11D621F35
:10452000739FB00DA11D621F839FA00D611D221FEF
:10453000749F3327A00D611D231F849F600D211DD3
:10454000822F762F6A2F11249F5750409AF0F1F056
:1045500088234AF0EE0FFF1FBB1F661F771F881FBF
:1045600091505040A9F79E3F510580F00C94CD2208
:104570000C9418235F3FE4F3983ED4F38695779527
:104580006795B795F795E7959F5FC1F7FE2B880F65
:10459000911D9695879597F9089597F99F6780E8FB
:1045A00070E060E008959FEF80EC089500240A9485
:1045B0001616170618060906089500240A941216FE
:1045C0001306140605060895092E0394000C11F431
:1045D000882352F0BB0F40F4BF2B11F460FF04C0DE
:1045E0006F5F7F4F8F4F9F4F089557FD9058440F37
:1045F000551F59F05F3F71F04795880F97FB991F42
:1046000061F09F3F79F087950895121613061406FE
:10461000551FF2CF4695F1DF08C01616170618068B
:10462000991FF1CF86957105610508940895E89466
:10463000BB2766277727CB0197F90895F999FECF15
:1046400092BD81BDF89A992780B50895262FF999D2
:10465000FECF1FBA92BD81BD20BD0FB6F894FA9A65
:10466000F99A0FBE019608950E947623A59F900D9A
:10467000B49F900DA49F800D911D112408952F9239
:104680003F924F925F926F927F928F929F92AF92E2
:10469000BF92CF92DF92EF92FF920F931F93CF932F
:1046A000DF93CDB7DEB7CA1BDB0B0FB6F894DEBFC6
:1046B0000FBECDBF09942A88398848885F846E84EC
:1046C0007D848C849B84AA84B984C884DF80EE8036
:1046D000FD800C811B81AA81B981CE0FD11D0FB63F
:1046E000F894DEBF0FBECDBFED010895A29FB001CB
:1046F000B39FC001A39F700D811D1124911DB29F16
:10470000700D811D1124911D08950E9499230C9410
:10471000E4220E94DD2258F00E94D62240F029F4C3
:104720005F3F29F00C94CD2251110C9418230C9466
:10473000D3220E94F52268F39923B1F3552391F314
:10474000951B550BBB27AA2762177307840738F000
:104750009F5F5F4F220F331F441FAA1FA9F335D05D
:104760000E2E3AF0E0E832D091505040E695001C11
:10477000CAF72BD0FE2F29D0660F771F881FBB1FCB
:10478000261737074807AB07B0E809F0BB0B802DA9
:10479000BF01FF2793585F4F3AF09E3F510578F0D5
:1047A0000C94CD220C9418235F3FE4F3983ED4F38D
:1047B000869577956795B795F7959F5FC9F7880FA9
:1047C000911D9695879597F90895E1E0660F771FFB
:1047D000881FBB1F621773078407BA0720F0621B8C
:1047E000730B840BBA0BEE1F88F7E0950895DB017D
:1047F0008F939F930E943423BF91AF91A29F800D0E
:10480000911DA39F900DB29F900D1124089597FBC9
:10481000072E16F4009407D077FD09D00E944C248F
:1048200007FC05D03EF4909581959F4F08957095B3
:1048300061957F4F0895A1E21A2EAA1BBB1BFD01B3
:104840000DC0AA1FBB1FEE1FFF1FA217B307E4076F
:10485000F50720F0A21BB30BE40BF50B661F771FC7
:10486000881F991F1A9469F76095709580959095A7
:104870009B01AC01BD01CF010895EE0FFF1F059014
:10488000F491E02D09942A193B094C095D096E0940
:104890007F09800B910B0895AA1BBB1B51E107C038
:1048A000AA1FBB1FA617B70710F0A61BB70B881FC0
:1048B000991F5A95A9F780959095BC01CD0108954F
:1048C0000F931F93CF93DF938230910510F482E012
:1048D00090E0E0919607F091970720E030E0A0E0AB
:1048E000B0E0309719F1408151810281138148175E
:1048F0005907C8F08417950769F4109731F012969C
:104900000C93129713961C9327C00093960710934D
:10491000970722C02115310519F04217530718F4E3
:104920009A01BD01EF01DF01F801DBCF211531054F
:10493000F9F0281B390B2430310580F48A819B81E2
:104940006115710521F0FB019383828304C090936C
:10495000970780939607FE01329644C0FE01E20F4E
:10496000F31F8193919322503109398328833AC0F0
:104970002091940730919507232B41F42091040155
:1049800030910501309395072093940720910201FF
:10499000309103012115310541F42DB73EB7409107
:1049A000060150910701241B350BE0919407F0910B
:1049B0009507E217F307A0F42E1B3F0B28173907C2
:1049C00078F0AC014E5F5F4F2417350748F04E0F6B
:1049D0005F1F50939507409394078193919302C072
:1049E000E0E0F0E0CF01DF91CF911F910F910895AA
:1049F000CF93DF93009709F481C0FC0132971382B3
:104A00001282A0919607B0919707109781F42081A8
:104A10003181820F931F20919407309195072817B9
:104A2000390751F5F0939507E093940767C0ED01BE
:104A300020E030E0CE17DF0740F44A815B819E0121
:104A400041155105F1F0EA01F5CFD383C2834081CE
:104A50005181840F951FC817D90759F4888199810E
:104A6000840F951F0296918380838A819B81938313
:104A700082832115310529F4F0939707E093960777
:104A80003DC0E901FB83EA8349915991C40FD51FC9
:104A9000EC17FD0761F480819181840F951F0296C8
:104AA000E90199838883828193819B838A83E0E0F3
:104AB000F0E012968D919C911397009719F0FD01EB
:104AC000DC01F7CF8D919C9111979D012E5F3F4F97
:104AD000820F931F2091940730919507281739076B
:104AE00069F4309729F4109297071092960702C044
:104AF00013821282B0939507A0939407DF91CF9110
:104B00000895A0E0B0E0E7E8F5E20C944323EC015F
:104B1000009721F4CB010E946024B4C0FC01E60F91
:104B2000F71F9C0122503109E217F30708F4A8C0CF
:104B3000D9010D911C91119706171707B0F0053098
:104B4000110508F49BC0C80104978617970708F45D
:104B500095C002501109061B170B019311936D9319
:104B60007C93CF010E94F82489C05B01A01AB10A8E
:104B70004C01800E911EA0919607B0919707612C71
:104B8000712CE12CF12C109709F446C08D919C9169
:104B90001197A815B905B1F56C0142E0C40ED11CFE
:104BA000CA14DB0478F14C018A189B08640142E0C6
:104BB000C40ED11C1296BC9012971396AC91B5E01E
:104BC000CB16D10440F0B282A38391828082D901B6
:104BD0006D937C9309C00E5F1F4F800F911FF901E9
:104BE00091838083EB2DFA2FE114F10431F0D7018A
:104BF0001396FC93EE93129741C0F0939707E093BE
:104C000096073CC06816790608F43C017D011296AF
:104C10000D90BC91A02DB7CF8091940790919507EE
:104C200088169906E1F466167706C8F480910201A9
:104C300090910301009741F48DB79EB74091060112
:104C400050910701841B950BE817F907C8F4F093FE
:104C50009507E0939407F901718360830FC0CB013E
:104C60000E9460247C01009759F0A801BE010E94B7
:104C70004C26CE010E94F824C70104C0CE0102C018
:104C800080E090E0CDB7DEB7EEE00C945F2381E0EA
:104C900090E0F8940C941E29FB01DC0102C0019005
:104CA0000D9241505040D8F70895FB01DC0101906E
:104CB0000D920020E1F70895FB01DC0141505040C6
:104CC00048F001900D920020C9F701C01D9241509B
:104CD0005040E0F70895AEE0B0E0E1E7F6E20C9472
:104CE0004D230D891E8986E08C831A8309838FEFFB
:104CF0009FE79E838D83AE01475E5F4F6F89788DFE
:104D0000CE0101960E948D26EF81F885E00FF11FFC
:104D100010822E96E4E00C946923ABE0B0E0E3E966
:104D2000F6E20C943F236C017B018A01FC0117829F
:104D30001682838181FFCCC1CE0101963C01F60130
:104D40009381F70193FD859193FF81917F018823E2
:104D500009F4BAC1853239F493FD859193FF8191AD
:104D60007F01853229F4B60190E00E948428E7CFC4
:104D7000912C212C312CFFE1F315D8F08B3279F0F6
:104D800038F4803279F08332A1F4232D20611DC0E4
:104D90008D3261F0803369F4232D216016C0832D9C
:104DA0008260382EE32DE4603E2E2AC0F32DF86099
:104DB0001DC037FC2DC020ED280F2A3040F08E3268
:104DC000B9F436FC81C1232D2064322E19C036FE81
:104DD00006C08AE0989E200D1124922E11C0EAE0B0
:104DE0002E9E200D1124222EF32DF0623F2E08C09E
:104DF0008C3621F4832D8068382E02C0883641F429
:104E0000F70193FD859193FF81917F018111B3CFCC
:104E1000982F9F7D9554933028F40C5F1F4F9FE38C
:104E200099830DC0833631F0833771F0833509F0F3
:104E300059C021C0F801808189830E5F1F4F8824EB
:104E40008394912C530113C02801F2E04F0E511CA2
:104E5000F801A080B18036FE03C0692D70E002C069
:104E60006FEF7FEFC5010E9479284C018201F32D7D
:104E7000FF773F2E16C0280122E0420E511CF80198
:104E8000A080B18036FE03C0692D70E002C06FEFD4
:104E90007FEFC5010E946E284C01F32DF0683F2E74
:104EA000820133FC1BC0822D90E088169906B0F475
:104EB000B60180E290E00E9484282A94F4CFF501A4
:104EC00037FC859137FE81915F01B60190E00E9429
:104ED000842821102A9421E0821A910881149104D7
:104EE00071F7E8C0843611F0893641F5F80137FED4
:104EF00007C060817181828193810C5F1F4F08C060
:104F000060817181072E000C880B990B0E5F1F4F7B
:104F1000F32DFF763F2E97FF09C0909580957095F1
:104F200061957F4F8F4F9F4FF0683F2E2AE030E012
:104F3000A3010E94C028882E861845C0853731F409
:104F4000232D2F7EB22E2AE030E025C0932D997FAD
:104F5000B92E8F36C1F018F4883579F0B5C0803796
:104F600019F0883721F0B0C0E92FE061BE2EB4FE01
:104F70000DC0FB2DF460BF2E09C034FE0AC0292FDE
:104F80002660B22E06C028E030E005C020E130E007
:104F900002C020E132E0F801B7FE07C060817181F4
:104FA000828193810C5F1F4F06C06081718180E018
:104FB00090E00E5F1F4FA3010E94C028882E861824
:104FC000FB2DFF773F2E36FE0DC0232D2E7FA22E08
:104FD000891458F434FE0BC032FC09C0832D8E7E38
:104FE000A82E05C0B82CA32C03C0B82C01C0B92C26
:104FF000A4FE0FC0FE01E80DF11D8081803321F475
:105000009A2D997EA92E09C0A2FE06C0B394B3942E
:1050100004C08A2D867809F0B394A3FC11C0A0FEC9
:1050200006C0B21488F4280C922C9B180EC0B2143F
:1050300060F4B60180E290E00E948428B394F7CF38
:10504000B21418F42B1802C0982C212CA4FE10C006
:10505000B60180E390E00E948428A2FE17C0A1FC64
:1050600003C088E790E002C088E590E0B6010CC07C
:105070008A2D867859F0A1FE02C08BE201C080E241
:10508000A7FC8DE2B60190E00E948428891438F4D0
:10509000B60180E390E00E9484289A94F7CF8A9426
:1050A000F301E80DF11D8081B60190E00E94842893
:1050B0008110F5CF222009F442CEB60180E290E0C3
:1050C0000E9484282A94F6CFF6018681978102C037
:1050D0008FEF9FEF2B96E2E10C945B23FC01059090
:1050E000615070400110D8F7809590958E0F9F1FEA
:1050F0000895FC016150704001900110D8F780952F
:1051000090958E0F9F1F08950F931F93CF93DF935A
:10511000FB01238121FD03C08FEF9FEF2CC022FFF5
:1051200016C046815781248135814217530744F4C4
:10513000A081B1819D012F5F3F4F318320838C93EC
:10514000268137812F5F3F4F3783268314C08B0121
:10515000EC01FB010084F185E02D0995892BE1F636
:10516000D80116968D919C911797019617969C934E
:105170008E931697CE01DF91CF911F910F910895D5
:10518000FA01AA27283051F1203181F1E8946F9378
:105190006E7F6E5F7F4F8F4F9F4FAF4FB1E03ED01E
:1051A000B4E03CD0670F781F891F9A1FA11D680FBC
:1051B000791F8A1F911DA11D6A0F711D811D911DEF
:1051C000A11D20D009F468943F912AE0269F112464
:1051D0003019305D3193DEF6CF010895462F4770C8
:1051E000405D4193B3E00FD0C9F7F6CF462F4F7023
:1051F000405D4A3318F0495D31FD4052419302D081
:10520000A9F7EACFB4E0A695979587957795679526
:10521000BA95C9F700976105710508959B01AC0126
:105220000A2E06945795479537952795BA95C9F74D
:10523000620F731F841F951FA01D089510E0CCEA14
:10524000D0E004C0FE010E943D242196CD3AD10752
:06525000C9F7F894FFCF3E
:10525600FEFF000098078000000000002A061703E2
:105266001D012001726F7373657269616C5F6D73E6
:1052760067732F52657175657374506172616D0045
:10528600000000008706BE032C0129010000000073
:1052960055066803260123017374645F737276737F
:1052A6002F456D70747900000000007B01350132D6
:1052B600012F0100000000830FF00E1A0FD00F4BD4
:1052C6000F290F3D0F0000000089105C10B9103047
:1052D6001054104010311000000000D700D700BF56
:1052E60010BC10000000001311C210BF10BC10004B
:1052F600000000F600E000DD00DA0000000000AC6F
:1053060004A2011701140100000000EF045B021162
:10531600010E0100000000510518071D011A0100C9
:10532600000000CA10CA10CA10CA10000000006AA5
:1053360014E108C51000000000471411119F01B4C4
:1053460012CC1000000000000000009F01CA10CA25
:10535600107E726563616C004661696C65642074D9
:105366006F2067657420706172616D3A2074696D93
:10537600656F757420657870697265640046616949
:105386006C656420746F2067657420706172616D4E
:105396003A206C656E677468206D69736D6174631D
:1053A6006800494D55005325644725644125644DE1
:1053B600256400373736346330323334623465342B
:1053C600343364396566373534666130313139399D
:1053D6003937640073616D616E615F6D7367732F3A
:1053E600496D7543616C696200633035323132381C
:1053F6006662393536383731383830306661306272
:105406006137303731653237310073616D616E61F6
:105416005F6D7367732F496D75536D616C6C0032E8
:105426003137366465636165636263653738616227
:1054360063336239366566303439666162656400A5
:105446007374645F6D7367732F486561646572007A
:1054560039663065393862646136353938313938FC
:105466003664646635336166613761343065343974
:1054760000633166336432386631623034346338FF
:105486003731653665666632653966633363363647
:105496003700313161626437333163323539333342
:1054A60032363163643631383362643132643632CF
:1054B600393500726F7373657269616C5F6D7367FE
:1054C600732F4C6F67003061643531663838666318
:1054D6003434383932663863313036383430373719
:1054E60036343630303500726F7373657269616CAD
:1054F6005F6D7367732F546F706963496E666F00D3
:105506006364373136366337346335353263333166
:105516003166626363326665356137626332383994
:10552600007374645F6D7367732F54696D650064EF
:105536003431643863643938663030623230346509
:105546003938303039393865636638343237650072
:10555600424E4F303535004D657373616765206681
:10556600726F6D206465766963652064726F707012
:1055760065643A206D657373616765206C61726757
:105586006572207468616E206275666665722E00AB
:10559600696D755F6461746100696D755F63616CE7
:0A55A600696200726573657400000D
:107800000C94343C0C94513C0C94513C0C94513CE1
:107810000C94513C0C94513C0C94513C0C94513CB4
:107820000C94513C0C94513C0C94513C0C94513CA4
:107830000C94513C0C94513C0C94513C0C94513C94
:107840000C94513C0C94513C0C94513C0C94513C84
:107850000C94513C0C94513C0C94513C0C94513C74
:107860000C94513C0C94513C11241FBECFEFD8E036
:10787000DEBFCDBF11E0A0E0B1E0ECE9FFE702C060
:1078800005900D92A230B107D9F712E0A2E0B1E065
:1078900001C01D92AD30B107E1F70E942D3D0C945F
:1078A000CC3F0C94003C982F959595959595959582
:1078B000905D8F708A307CF0282F295A8091C0000B
:1078C00085FFFCCF9093C6008091C00085FFFCCF60
:1078D0002093C6000895282F205DF0CF982F809127
:1078E000C00085FFFCCF9093C6000895EF92FF92F1
:1078F0000F931F93EE24FF2487018091C00087FD22
:1079000017C00894E11CF11C011D111D81E4E8164B
:1079100082E4F8068FE0080780E0180770F3E09132
:107920000401F091050109958091C00087FFE9CF1E
:107930008091C6001F910F91FF90EF9008950E94D3
:10794000763C982F8091C00085FFFCCF9093C600B5
:1079500091362CF490330CF09053892F089597555D
:10796000892F08951F930E949F3C182F0E949F3CCF
:107970001295107F810F1F9108951F93182F882350
:1079800021F00E94763C1150E1F71F9108951F935A
:10799000182F0E94763C803249F0809103018F5F5E
:1079A000809303018530C1F01F9108958091C0003C
:1079B00085FFFCCF84E18093C6008091C00085FFE5
:1079C000FCCF1093C6008091C00085FFFCCF80E102
:1079D0008093C6001F910895E0910401F091050184
:1079E00009951F9108950E94763C803241F0809164
:1079F00003018F5F80930301853081F008958091AA
:107A0000C00085FFFCCF84E18093C6008091C00058
:107A100085FFFCCF80E18093C6000895E0910401CA
:107A2000F09105010995089540E951E08823A1F0FE
:107A30002D9A28EE33E0FA013197F1F721503040CA
:107A4000D1F72D9828EE33E0FA013197F1F7215064
:107A50003040D1F7815061F708953F924F925F9285
:107A60006F927F928F929F92AF92BF92CF92DF924E
:107A7000EF92FF920F931F93CF93DF93000080E16B
:107A80008093C4001092C50088E18093C10086E015
:107A90008093C2005098589A259A81E00E94143D24
:107AA00024E1F22E9EE1E92E85E9D82E0FE0C02ECA
:107AB00010E1B12EAA24A394B1E49B2EA6E58A2E50
:107AC000F2E57F2EE0E26E2E79E4572E63E5462E36
:107AD00050E5352E0E94763C8033B1F18133B9F107
:107AE000803409F46FC0813409F476C0823409F41B
:107AF00085C0853409F488C0803531F1823521F1A3
:107B0000813511F1853509F485C0863509F48DC0BC
:107B1000843609F496C0843709F403C1853709F423
:107B200072C1863709F466C0809103018F5F80932C
:107B30000301853079F6E0910401F0910501099582
:107B40000E94763C803351F60E94F33CC3CF0E94E2
:107B5000763C803249F78091C00085FFFCCFF092DF
:107B6000C6008091C00085FFFCCF9092C600809136
:107B7000C00085FFFCCF8092C6008091C00085FFC9
:107B8000FCCF7092C6008091C00085FFFCCF609250
:107B9000C6008091C00085FFFCCF5092C600809146
:107BA000C00085FFFCCF4092C6008091C00085FFD9
:107BB000FCCF3092C6008091C00085FFFCCFB09210
:107BC000C60088CF0E94763C863808F4BDCF0E945C
:107BD000763C0E94F33C7ECF0E94763C803809F4CC
:107BE0009CC0813809F40BC1823809F43CC1883942
:107BF00009F48FC080E00E94C73C6CCF84E10E94F2
:107C0000BD3C0E94F33C66CF85E00E94BD3C0E94D3
:107C1000F33C60CF0E94763C809306010E94763C44
:107C2000809307010E94F33C55CF0E94763C80333D
:107C300009F41DC183E00E94BD3C80E00E94C73C66
:107C400049CF0E94763C809309020E94763C809343
:107C5000080280910C028E7F80930C020E94763C79
:107C6000853409F415C18091080290910902892B8D
:107C700089F000E010E00E94763CF801E85FFE4FDA
:107C800080830F5F1F4F80910802909109020817AF
:107C9000190788F30E94763C803209F045CF809125
:107CA0000C0280FF01C16091060170910701660F0F
:107CB000771F7093070160930601A0910802B091AD
:107CC00009021097C9F0E8E0F1E09B01AD014E0F09
:107CD0005F1FF999FECF32BD21BD819180BDFA9A17
:107CE000F99A2F5F3F4FE417F50799F76A0F7B1F4B
:107CF00070930701609306018091C00085FFFCCF5F
:107D0000F092C6008091C00085FFFCCFB092C60003
:107D1000E1CE83E00E94C73CDDCE82E00E94C73CFA
:107D2000D9CE0E94763C809309020E94763C8093D3
